:020000022000DC
:106000000000012071630200596302005B6302001B
:106010005D6302005F630200616302000000000034
:1060200000000000000000000000000063630200A8
:1060300065630200000000006763020069630200FC
:1060400021A002006B630200B9A5020019B1020091
:106050006B6302006B630200B5A402006B63020075
:106060006B6302006B6302006B6302006B630200F0
:106070006B6302006B6302006B6302006B630200E0
:106080006B630200E17C02006B6302006B63020041
:106090006B6302006B630200C9BF02006B63020006
:1060A0006B6302006B6302006B6302006B630200B0
:1060B0006B6302006B630200000000000000000040
:1060C0006B6302006B6302006B6302006B63020090
:1060D0006B6302006B6302006B6302000000000050
:1060E00000000000000000000000000000000000B0
:1060F00000000000000000000000000000000000A0
:10610000000000000000000000000000000000008F
:10611000000000000000000000000000000000007F
:10612000000000000000000000000000000000006F
:10613000000000000000000000000000000000005F
:10614000000000000000000000000000000000004F
:10615000000000000000000000000000000000003F
:10616000000000000000000000000000000000002F
:10617000000000000000000000000000000000001F
:10618000000000000000000000000000000000000F
:1061900000000000000000000000000000000000FF
:1061A00000000000000000000000000000000000EF
:1061B00000000000000000000000000000000000DF
:1061C00000000000000000000000000000000000CF
:1061D00000000000000000000000000000000000BF
:1061E00000000000000000000000000000000000AF
:1061F000000000000000000000000000000000009F
:10620000344935480A1A02D0072291438D46334952
:1062100033480A1A06D00722914381F309880222E3
:1062200082F314882F483049304A00F041F8304852
:106230003049314A00F03CF830483149314A00F0E9
:1062400037F831483149324A00F032F831483249A2
:10625000324A00F02DF832483249334A00F028F82B
:1062600032483349334A00F023F833483349002297
:1062700000F029F832483349002200F024F832486F
:106280003249091A06F062F8314A90471F482049FE
:10629000884205D00268043003B4904703BCF7E796
:1062A00000208646EC46002000212A4A9047FEE75F
:1062B000884207D0521A05D0037801300B700131A3
:1062C000013AF9D17047884202D002700130FAE7F2
:1062D000704700000000012000E0002000000120C5
:1062E0000000012000E10200D82A00203C2B002001
:1062F000CC630200CC63020060C3020000E1020034
:10630000D82A0020D82A002044C4020044C4020035
:1063100044C4020044C4020044C4020044C4020055
:1063200044C4020044C40200FDE0020064E1020033
:106330003C2B00203C2B00203C2B002088350020EB
:1063400088350020883500208835002088550020B9
:106350009963020041B40200FEE7FEE7FEE7FEE7B4
:10636000FEE7FEE7FEE7FEE7FEE7FEE700F002B825
:10637000FFF7FCBF0F484FF00701884385460E48E2
:1063800080470E48016841F470010160BFF34F8FF0
:10639000BFF36F8FFFF734BF09480A490A4A8842A2
:1063A00007D0521A05D0037801300B700131013A41
:1063B000F9D17047000001206594020088ED00E0EB
:0C63C00044C40200D82A0020D82A002083
:1063CC0000B585B00190019B002B0AD0074B43F020
:1063DC0001030393019B9B010293039B0298984733
:1063EC0000E000BF05B05DF804FB00BF50C4020024
:1063FC0000B583B00190019B002B0AD04FF47A704A
:10640C00FFF7DEFF019B013B0193019B002BF5D1B4
:10641C0000E000BF03B05DF804FB08B505F0F4F92B
:10642C0000BF08BD00B589B0039002910192019B99
:10643C00002B33D00023079303230693029A079B68
:10644C001344019A1946002005F08EF90590079A1D
:10645C00059B13440793019A059BD31A0193059B43
:10646C00002B13D10F4B1B7883F00103DBB2002BF5
:10647C0013D10120FFF7BCFF069B013B0693069B43
:10648C00002B03D1074B00221A7007E0054B0122A9
:10649C001A70019B002BD1D100E000BF00BF09B0E6
:1064AC005DF804FB3C2B002000B585B003900291F5
:1064BC00054B00934023054A0299039800F012F80B
:1064CC0000BF05B05DF804FB31640200402B0020D6
:1064DC0082B0019000BF02B0704782B0019000BF43
:1064EC0002B0704700B5A1B00590049103920293DD
:1064FC00049802F0E3FA039B1593029B1693002376
:10650C00179300238DF8603000231993229B1A9364
:10651C0000231F930FA91F9B0822049802F0A8FBCD
:10652C0008231F93119B1293BDF84030ADF84C30EB
:10653C00BDF84230ADF84E3000238DF851309DF847
:10654C003C3003F00303DBB2012B26D10F9BC3F3CA
:10655C0095231C939DF83C30C3F3C203DBB28DF83A
:10656C005030BDF83C30C3F38313DBB21B931B9B41
:10657C009A0009A91F9B049802F07AFB1B9B9B00B5
:10658C001F9A13441F9312AA09A915AB0093134623
:10659C001B9A1C9800F074FF2FE09DF83C3003F020
:1065AC000303DBB2022B28D1BDF83E30C3F38913B1
:1065BC009BB21E939DF83C30C3F3C203DBB28DF843
:1065CC0050301E9B082B28BF08231D9307A91F9B27
:1065DC001D9A049802F04CFB1F9A1D9B13441F93A9
:1065EC001E9A1D9BD31A1E9315AB12AA07A81D99B0
:1065FC0000F0E8FF1E9B002BE3D1049802F06DFA2B
:10660C0000BF21B05DF804FB82B00190019BDB68F8
:10661C0001225A7100BF02B07047000000B583B070
:10662C004FF0FF330193FFF7F8FE0421084800F008
:10663C0043FE0190019B002B03DA0649412001F037
:10664C0057FB0348FFF7E0FF00BF03B05DF804FB06
:10665C0034C4020068C4020000B583B001900091FC
:10666C00019B1B681B6800990198984700BF03B0F9
:10667C005DF804FB00B583B00190019B1B685B685F
:10668C000198984700BF03B05DF804FB00B583B0D8
:10669C000190019B1B689B680198984700BF03B051
:1066AC005DF804FB82B001900B468DF80330019B22
:1066BC00DB689DF803201A7100BF02B0704782B0EE
:1066CC000190019BDB681B79184602B0704782B0C1
:1066DC000190019BDB6801225A7100BF02B0704728
:1066EC0082B00190019BDB685B79184602B0704761
:1066FC0000B585B0019000910C4B00221A700C482B
:10670C0002F040F90390039B002B01D0039B08E09F
:10671C00084802F0CDFA084A084BD31ADB0802935A
:10672C000023184605B05DF804FB00BFE82C0020E0
:10673C0098C30200E8C4020034C40200ACC30200D7
:10674C00024A034BD31ADB081846704734C40200C4
:10675C00ACC3020000B587B001900B468DF8033036
:10676C009DF80330002B1FD0FFF7EAFF04900023A5
:10677C00059313E0059B9B000E4A13440393039B64
:10678C001B881A46019B1B689A4204D1019B059AEF
:10679C001A60002309E0059B01330593059A049BBD
:1067AC009A42E7D3052300E00023184607B05DF8B2
:1067BC0004FB00BFD82A002000B585B001900B4621
:1067CC008DF803309DF8032001AB11461846FFF7F6
:1067DC00C1FF0346002B07D1019BDB00054A134484
:1067EC000393039B1B6800E00023184605B05DF87B
:1067FC0004FB00BFACC3020084B001900B468DF8C3
:10680C000330019BDB00174A134402939DF80330BD
:10681C00013B032B1CD801A252F823F0396802006B
:10682C0041680200496802005368020002238DF897
:10683C000F3011E004238DF80F300DE0029B1B7913
:10684C008DF80F3008E0029B5B798DF80F3003E078
:10685C0000238DF80F3000BF9DF80F30184604B0A0
:10686C00704700BFACC3020084B0019000910023BC
:10687C008DF80F30019B1B7803F00403DBB2002B67
:10688C0024D0019B1B78C3F30103DBB2012B02D094
:10689C00022B0CD017E0009B1B68019A1288C2F3E4
:1068AC008312D2B213449A1C009B1A600BE0009B1B
:1068BC001B68019A5288C2F3891292B213449A1C33
:1068CC00009B1A6000BF01238DF80F309DF80F302C
:1068DC00184604B07047000000B58BB00023ADF82B
:1068EC0026303E4801F059FB3D4801F056FB3D4B2C
:1068FC009B6804933C4B1B680693049A069B1340BD
:10690C0002339B00374A13440433089304AB1946F3
:10691C000898FFF7A9FF0346002B09D0049A069BA1
:10692C00134002339B002F4A134404330893EDE7C2
:10693C0000BF0023079311E0049B5A1C0492069A93
:10694C001340079A920001A90A44264902339B007E
:10695C000B445B681360079B01330793079B012B68
:10696C00EAD99DF80430C3F30103DBB2012B10D03C
:10697C00022B1CD1BDF80A30ADF82630BDF806301C
:10698C00C3F389139BB203339A08049B13440493F7
:10699C0013E0BDF80A30ADF82630BDF80430C3F36F
:1069AC008313DBB21A46049B1344049305E00F498E
:1069BC004FF4C27001F09CF900BF094801F0F9FADC
:1069CC000590059B002B02D0049B064A9360BDF8F2
:1069DC00263018460BB05DF804FB00BF00310020D8
:1069EC00FC300020E82C0020E02A0020F8C4020033
:1069FC0000B585B00021074801F040FA0390039BD5
:106A0C000293029B83F310030193019B184605B07C
:106A1C005DF804FB0431002000B589B003900291AD
:106A2C0001920093039B1B0C0793FFF7E1FF069069
:106A3C00FFF786FE0246079B934204D3214940F29E
:106A4C00A91001F055F9069B1904009B5A1C0A9BCE
:106A5C001340079A0A431C4902339B000B445A60AB
:106A6C00009A0A9B134002339B00174A13440433C9
:106A7C000593039B03F00703D9B2059A137861F3CE
:106A8C00C5031370019B03F00F03D9B2059A138849
:106A9C0061F389131380029BC3F31501059A1368E4
:106AAC0061F39F231360059A1378012161F30103AD
:106ABC001370059A13786FF38203137000BF09B03B
:106ACC005DF804FBF8C40200E82C002000BF7047FE
:106ADC0000B58DB00390029113468DF80730039BDF
:106AEC0002330A9301238DF8273000238DF81B30D5
:106AFC000DF11B03184601F061F8404B5A68029BDC
:106B0C001A603F4B1A683D4B99683C4B5B68CB1A3B
:106B1C00134401330B9314E001213A4801F00DFAB0
:106B2C00FFF7DAFE07900799364801F006FA344B66
:106B3C001A68324B9968314B5B68CB1A134401339A
:106B4C000B930A9A0B9B9A42E6D89DF82730002BA0
:106B5C0048D0002305939DF80730002B17D09DF8E3
:106B6C001430012262F301038DF814309DF81430B7
:106B7C0043F004038DF81430039B03F00F03DAB2D7
:106B8C00BDF8143062F38913ADF8143016E09DF89B
:106B9C001430022262F301038DF814309DF8143086
:106BAC0043F004038DF81430039BC3F309039AB22A
:106BBC00BDF8163062F38F13ADF816300F4B5A68D0
:106BCC000F4B1B68134002339B000C4A13440433D5
:106BDC000893059A089B1A60084B5A680A9B134441
:106BEC00064A53609DF81B30184600F0FDFF9DF8D7
:106BFC00273018460DB05DF804FB00BFE82C0020D0
:106C0C00E02A00200431002000B58BB005900491DF
:106C1C0003920293204B1B68079306AB0122194683
:106C2C000298FFF755FF0346002B24D0069B023336
:106C3C0009930023089311E0089B9B00039A1A44C4
:106C4C00099B591C099107990B401268134902338F
:106C5C009B000B445A60089B01330893089A029BD3
:106C6C009A42E9D3069A079B00931346029A049919
:106C7C000598FFF7D1FE094B1B78002B05D000BF00
:106C8C0000F010F90346002BFAD1FFF71FFF00BFED
:106C9C000BB05DF804FB00BFE02A0020E82C0020BC
:106CAC0000B583B001900091002300220099019857
:106CBC00FFF7AAFF00BF03B05DF804FB00B587B077
:106CCC00039002910192019B059305AA012302995D
:106CDC000398FFF799FF00BF07B05DF804FB00B500
:106CEC0087B00390029101920093019B0493009B47
:106CFC00059304AA022302990398FFF785FF00BFAE
:106D0C0007B05DF804FB00B58BB0039002910192C3
:106D1C000093019B0593009B06930C9B07930D9B83
:106D2C0008930E9B099305AA052302990398FFF774
:106D3C006BFF00BF0BB05DF804FB000000B58DB01D
:106D4C00039002911346ADF806304C4B1B680B9325
:106D5C00BDF8063003339B0805A900221846FFF73F
:106D6C00B7FE0346002B78D0059B0A93059B023394
:106D7C000593424B1A6805990B9B0B40D31A0133B0
:106D8C009B000993BDF80630099A9A420ED3059AD6
:106D9C000B9B134002339B00394A13440433BDF858
:106DAC0006200299184605F065FA17E0059A0B9B28
:106DBC00134002339B00324A13440433099A02995C
:106DCC00184605F057FA029A099BD118BDF806200F
:106DDC00099BD31A1A462B4805F04CFA039B1B0C43
:106DEC000893FFF705FE0790079B19040A9B5A1C92
:106DFC000B9B1340089A0A43214902339B000B4416
:106E0C005A600A9A0B9B134002339B001C4A134492
:106E1C0004330693039B03F00703D9B2069A137845
:106E2C0061F3C5031370069A13886FF38F131380E5
:106E3C00BDF80630C3F3090399B2069A538861F37F
:106E4C008F135380069A1378022161F30103137098
:106E5C00069A13786FF382031370094B1B78002B7F
:106E6C0005D000BF00F01EF80346002BFAD1FFF747
:106E7C002DFE00BF0DB05DF804FB00BFE02A002022
:106E8C00E82C0020F42C0020054B9A68044B5B681E
:106E9C009A420CBF01230023DBB21846704700BF97
:106EAC00E82C002000B599B0FFF7EEFF0346002B4D
:106EBC0001D00023C0E19B4B0022C3F81824BFF380
:106ECC004F8F00BF974B9B680493974B1B68109395
:106EDC00049A109B134002339B00924A13440433D0
:106EEC001193002317930023169300230F9304ABE5
:106EFC0019461198FFF7B8FC0346002B19D0894BA3
:106F0C00D3F81834002B14D1864B5A68049B9A4240
:106F1C0005D8844B5B68834A936000238CE1049A08
:106F2C00109B134002339B007E4A1344043311938D
:106F3C00DDE70023159311E0049B5A1C0492109A70
:106F4C001340159A920001A90A44764902339B001A
:106F5C000B445B681360159B01331593159B012B38
:106F6C00EAD99DF8043003F00303DBB2022B40F0A6
:106F7C009C80BDF80630C3F389139BB20D93BDF80A
:106F8C000630C3F389139BB2502B28BF50239BB2FE
:106F9C000C930C9BC3F309039AB2BDF8063062F351
:106FAC008F13ADF806300C9B08330B939DF804300F
:106FBC00C3F3C203DBB20F930B995C4801F0EDFCF9
:106FCC001790179B002B00F0D380179801F076FDDB
:106FDC0001A9169B0822179801F02CFE169B08336A
:106FEC001693049BDA43109B134001339B000A93C6
:106FFC000C9A0A9B9A4242D90A9B002B08D0049AFD
:10700C00109B134002339B00464A1344043300E0A8
:10701C00474B08930A9B002B02D00A9BDBB201E082
:10702C000C9BDBB28DF81F300A9B002B01D0404B20
:10703C0000E0002306930A9B002B06D00C9BDAB2CF
:10704C000A9BDBB2D31ADBB200E000238DF81730B9
:10705C009DF81F20169B0899179801F0EBFD9DF8E1
:10706C001F30169A13441693069B002B16D09DF8CE
:10707C001720169B0699179801F0DCFD0EE0049A78
:10708C00109B134002339B00264A1344043309938C
:10709C00169B0C9A0999179801F0CCFD0D9B0333A4
:1070AC009A08049B1344049362E09DF8043003F0A7
:1070BC000303DBB2012B5BD1BDF80430C3F38313A4
:1070CC00DBB2062B28BF0623DAB2BDF8043062F31C
:1070DC008913ADF80430BDF80430C3F38313DBB26D
:1070EC0002330E939DF80430C3F3C203DBB20F934B
:1070FC000E9B9B0019460D4801F04FFC1790179BF7
:10710C00002B35D0179801F0D9FC01A9169B082249
:10711C00179801F08FFD169B0833169300231593D7
:10712C001DE000BFE82C0020E02A002098C30200DC
:10713C00F42C0020049B5A1C0492109A1340023326
:10714C009B003F4A1344191D169B0422179801F00B
:10715C0071FD169B04331693159B01331593BDF8E3
:10716C000430C3F38313DBB21A46159B9342E1D36D
:10717C00179B002B40D0324BD3F810341493304B68
:10718C00D3F81834002B1BD0179801F0A6FC4DE057
:10719C0000238DF84F301498FFF7A2FA0346002B0A
:1071AC0002D001238DF84F309DF84F30002B03D0C7
:1071BC0017991498FFF750FA149BDB681B6814930B
:1071CC00149B002BE4D1179801F087FC00238DF859
:1071DC0003300DF10303184600F0F0FC184BD3F804
:1071EC001834002B02D1049B154A93609DF8033090
:1071FC00184600F0F9FC19E0114BD3F81034129337
:10720C0006E01298FFF742FA129BDB681B68129398
:10721C00129B002BF5D10B4A0B4BD31ADB081B042A
:10722C0043F0020309491846FFF73AFDFFF72CFE1D
:10723C00034683F00103DBB2184619B05DF804FB7A
:10724C00E82C0020DCC30200ACC3020070C50200B5
:10725C0000B585B00023039323E0164BD3F810340C
:10726C00029301238DF807300FE00298FFF727FAFD
:10727C0003461A46039B934203D100238DF8073033
:10728C0006E0029BDB681B680293029B002BECD18F
:10729C009DF80730002B01D0039B07E0039B0133C3
:1072AC000393039B092BD8DD4FF0FF33184605B031
:1072BC005DF804FBE82C002000B585B001900B466E
:1072CC008DF80330FFF7C4FF0390039BB3F1FF3F2E
:1072DC0001D1039B22E0039BDBB219460198FFF717
:1072EC00E1F9104BD3F81034002B08D10D4A019B57
:1072FC00C2F81034019BDB6800221A600DE0094BC8
:10730C00D3F81034DA68019BDB6812681A60054BFD
:10731C00D3F81034DB68019A1A60039B184605B049
:10732C005DF804FBE82C002000B583B00C4BD3F8BF
:10733C00103401930A4B01221A7009E00198FFF7EF
:10734C00C6F90198FFF796F9019BDB681B6801935E
:10735C00019B002BF2D100BF00BF03B05DF804FB12
:10736C00E82C002082B00190009100BF02B0704761
:10737C0010B584B003900291039BDB88002B0AD0DC
:10738C00039BDB881A461F4B009313461E4A1F496A
:10739C00029800F04BFF039B1B7A052B2ED0039B0E
:1073AC005B7A002B12D0039B9B881A46039B1B7A9B
:1073BC0019461046FFF720FA03461A46144B53F8A9
:1073CC0022301A461349029800F030FF039B1B68C9
:1073DC0019460298FFF7C6FF039B1B7A1A460E4B01
:1073EC0053F82240039B9B8800211846FFF7E4F9D1
:1073FC00034622460949029800F018FF00BF04B06A
:10740C0010BD00BFA4C50200B4C50200ECC502004B
:10741C00F82A002004C60200E42A002008C6020054
:10742C0000B585B00390029113468DF80730039B8D
:10743C001B7A052B0FD0039B5B7A002B06D00D4BD0
:10744C001B681A460C49029800F0F0FE0B49029892
:10745C0000F0ECFE07E09DF80730002B03D0074945
:10746C00029800F0E3FE029800F0BEFE00BF05B0EB
:10747C005DF804FBF82A002004C6020014C60200C2
:10748C0030B58BB007900691059204930E9B1B7B35
:10749C008DF827300E9B00221A730E990498FFF773
:1074AC0067FF059B062B7FD801A252F823F000BF83
:1074BC00D9740200E3740200F37402000775020031
:1074CC00257502004D7502007D75020007990E9816
:1074DC0000F0ACFE69E0069B1B681A4607990E98F3
:1074EC0000F0A4FE61E0069B1A68069B04331B683F
:1074FC0007990E9800F09AFE57E0069B1A68069BB7
:10750C0004331968069B08331B6800930B460799D4
:10751C000E9800F08BFE48E0069B1968069B04331E
:10752C001868069B08331B68069A0C321268019285
:10753C00009303460A4607990E9800F077FE34E054
:10754C00069B1868069B04331C68069B08331B6853
:10755C00069A0C3212680699103109680291019250
:10756C0000932346024607990E9800F05FFE1CE03C
:10757C00069B1C68069B04331D68069B08331B681E
:10758C00069A0C3212680699103109680698143064
:10759C00006803900291019200932B4622460799B2
:1075AC000E9800F043FE00E000BF00220E990498F4
:1075BC00FFF736FF0E9B9DF827201A7300BF0BB008
:1075CC0030BD00BF00B587B00390029101920093CB
:1075DC00029B082B60D8009B1B7B8DF81330009B03
:1075EC0000221A7300990198FFF7C2FE002305933D
:1075FC0014E0059A029B9A4209D2039A059B134404
:10760C001B781A462649009800F010FE03E0254925
:10761C00009800F00BFE059B01330593059B072B8F
:10762C00E7D92149009800F001FE0023059326E0DC
:10763C00059A029B9A421BD2039A059B13441B7812
:10764C008DF812309DF812307E2B0AD89DF812302E
:10765C00184604F0A4FD0346002B02D09DF812300E
:10766C0000E02E231A461149009800F0DFFD03E0DC
:10767C000F49009800F0DAFD059B01330593059B3B
:10768C00072BD5D9012200990198FFF7C9FE009B61
:10769C009DF813201A7300E000BF07B05DF804FBDF
:1076AC0018C6020020C6020024C6020028C602002A
:1076BC002CC6020086B003900291019201238DF832
:1076CC0017309DF81730204A039B13601E4A029B0B
:1076DC0053601D4A019B9360039B44F20102934249
:1076EC0012D0039B44F20202934220D1019B164A12
:1076FC00D360154BDB681B68134A9361124BDB6834
:10770C005B68114AD36112E0019B0F4A13610E4B67
:10771C001B699B680C4A53610B4B1B691B680A4A1B
:10772C009361094B1B695B68074AD36100BF72B652
:10773C0000BF00BF9DF81730DBB2002BFAD162B648
:10774C0000BF00BF06B070470831002000B583B001
:10775C0002900091019244F2010071466A4600F0D9
:10776C0003F803B000BD00BF30B58BB00790069195
:10777C00059272B600BFFFF7D7FD00BFFFF792FB73
:10778C000346002BFAD1079B44F2020293422FD0FE
:10779C00079B44F20202934269D8079B44F2010210
:1077AC00934237D0079B44F2010293425FD8079B68
:1077BC00012B05D0079B41F2010293420CD056E0FD
:1077CC00394A3A4BD31ADB081B0443F001033849FE
:1077DC001846FFF765FA57E0334A344BD31ADB08E7
:1077EC001B0443F0010333491846FFF759FA4BE0E9
:1077FC00059B09932C4A2D4BD31ADB081B0443F031
:10780C000100099B5B681A46099B1B682A49FFF714
:10781C0066FA39E0059B0893234A244BD31ADB08FC
:10782C001B0443F00104089B9D68089B9B68184649
:10783C0001F0B8FA03461846089B5B681946089B8A
:10784C001B68069A02920193009103462A461B4933
:10785C002046FFF758FA144A144BD31ADB081B04C2
:10786C0043F0010316491846FFF71AFA0CE00E4ACA
:10787C000E4BD31ADB081B0443F00103069A114983
:10788C001846FFF71BFA00BF0F4B1B6803F00103F0
:10789C00002B00D000BE059A06990798FFF70AFF47
:1078AC0000BF0BB030BD00BFDCC30200ACC3020094
:1078BC00ACC60200CCC60200F0C602000CC7020027
:1078CC0034C7020048C70200F0ED00E02DE9F04398
:1078DC0083B0144800F0E4F9034600221C46154618
:1078EC00114BD3E9002314EB020845EB0309CDE956
:1078FC0000890E4BD3E90023DDE90001904271EBC6
:10790C00030307D2DDE9002312F1807643F100076F
:10791C00CDE90067DDE900231046194603B0BDE848
:10792C00F08300BF1C2B00202831002030310020B8
:10793C0008B5024800F0C1F900BF08BD1C2B00209F
:10794C0000B585B0034600918DF80730114A02ABA3
:10795C001946104600F01CFA0390039B002B13D021
:10796C00039B9DF807201A70039B009A5A60094AE2
:10797C0002AB1946104600F024FA0346002B01D046
:10798C00FFF7D6FF002300E00423184605B05DF88E
:10799C0004FB00BF38310020F0B589B00390029190
:1079AC000192039B002B04D1264940F26B2000F07E
:1079BC009FF9039B069300238DF817300DF11703E5
:1079CC00184600F0FBF8069BD3E90223B3F1FF3F06
:1079DC0008BFB2F1FF3F11D1FFF778FF02460B460B
:1079EC00029900200C460546161943EB0507069B29
:1079FC00C3E9026701238DF81F3002E000238DF8E4
:107A0C001F309DF81730184600F0EEF89DF81F3027
:107A1C0083F00103DBB2002B01D000230EE0069BA8
:107A2C00019A9A61069B1B69002B02D0069B029A55
:107A3C001A6106990020FFF783FF0346184609B028
:107A4C00F0BD00BF6CC7020000B587B00190019B70
:107A5C00002B04D11E4940F2932000F049F9019B00
:107A6C00049300238DF80F300DF10F03184600F02E
:107A7C00A5F8049BD3E90223B3F1FF3F08BFB2F191
:107A8C00FF3F03D100238DF8173009E004994FF024
:107A9C00FF324FF0FF33C1E9022301238DF8173079
:107AAC009DF80F30184600F09FF89DF8173083F0C2
:107ABC000103DBB2002B01D0002304E00499012068
:107ACC00FFF73EFF0346184607B05DF804FB00BF06
:107ADC006CC7020082B0EFF310830093009B0193FC
:107AEC0072B600BF019B184602B0704762B600BF69
:107AFC0000BF704700B585B00190FFF7EBFF039016
:107B0C00164B9B68002B1BD1144B01229A60144B13
:107B1C00D3F88020134B1340104A1360104B114ABA
:107B2C00C3F880200E4BD3F884300C4A53600C4BB6
:107B3C004FF0FF32C3F88420019B00221A7002E040
:107B4C00019B01221A70039B002B01D1FFF7CEFF82
:107B5C000023184605B05DF804FB00BF4831002037
:107B6C0000E100E0FC06FFBD00B585B003468DF8D2
:107B7C000730104B9B68002B16D09DF80730002B5C
:107B8C0012D1FFF7A7FF03900B4A0A4B1B68136037
:107B9C00094A084B5B685360064B00229A60039BB2
:107BAC00002B01D1FFF7A2FF0023184605B05DF8AA
:107BBC0004FB00BF4831002000E100E000B583B0B9
:107BCC00019000F02BF80346012B03D0054943200C
:107BDC0000F08EF80198FFF78DFF00BF03B05DF841
:107BEC0004FB00BFE0C7020000B583B003468DF86C
:107BFC00073000F013F80346012B03D0064951203F
:107C0C0000F076F89DF807301846FFF7ADFF00BF7F
:107C1C0003B05DF804FB00BFE0C7020084B0EFF3D3
:107C2C0005830193019BC3F308030393039B002B70
:107C3C000DD1EFF314830093009B0293029B03F08E
:107C4C000103002B0CBF01230023DBB200E0012356
:107C5C00184604B07047000082B003468DF8073018
:107C6C009DF90730002B0DDB9DF8073003F01F0248
:107C7C0006499DF907305B09012000FA02F24033F6
:107C8C0041F8232000BF02B0704700BF00E100E0C4
:107C9C0082B00190019BD3F80435184602B07047AE
:107CAC0000B583B00190019B1B681846FFF7F0FFED
:107CBC000346184603B05DF804FB00B583B0019091
:107CCC00019B93F904301846FFF7C6FF00BF03B0C1
:107CDC005DF804FB08B5044B1B68044A1268104697
:107CEC00984700BF08BD00BF543100205831002018
:107CFC0000B585B003460091ADF80630BDF80630EE
:107D0C000293009B039302AB1A46002144F202003B
:107D1C00FFF72AFD00BF05B05DF804FB86B00190AB
:107D2C000091019B53E8011F8AB2D88902449889BB
:107D3C00824228BF121A1889824202BFBFF32F8FCA
:107D4C00002307E0C2EA010243E801200028E9D140
:107D5C004FF001038DF80F30059002910492029AB6
:107D6C00009B1A609DF80F30DBB2184606B07047C6
:107D7C0084B00190019951E8013FC3EA034341E803
:107D8C000132002AF7D10392029300BF04B070476E
:107D9C0000B585B001900091009B19460198FFF742
:107DAC00BDFF0346002B07D0019B1B68009A12886D
:107DBC0013440393039B00E00023184605B05DF8C1
:107DCC0004FB00B583B001900091009B1A88009BC6
:107DDC005B889A4204D10198FFF7CAFF012300E0A7
:107DEC000023184603B05DF804FB00B585B0019084
:107DFC000091009B5B099B00019A1A44009B03F0C5
:107E0C001F03012101FA03F31946104600F04DF847
:107E1C00039000BF05B05DF804FB00B585B0019080
:107E2C000091009B5B099B00019A1A44009B03F094
:107E3C001F03012101FA03F3DB431946104600F03E
:107E4C0064F8039000BF05B05DF804FB82B00190AC
:107E5C000091009B5B099B00019A13441A68009BDC
:107E6C0003F01F0322FA03F303F00103002B14BFEA
:107E7C0001230023DBB2184602B0704710B487B060
:107E8C0001900091019B009A53E8004F104643E883
:107E9C00000191F0000FF7D1059404900391059B1C
:107EAC00184607B05DF8044B704710B487B00190CA
:107EBC000091019B009A53E8004F44EA020043E80A
:107ECC00000191F0000FF6D1059404900391049BEE
:107EDC00184607B05DF8044B704710B487B001909A
:107EEC000091019B009A53E8004F04EA020043E81A
:107EFC00000191F0000FF6D1059404900391059BBD
:107F0C00184607B05DF8044B704710B487B0019069
:107F1C000091019B009A53E8004F04EA020043E8E9
:107F2C00000191F0000FF6D1059404900391049B8D
:107F3C00184607B05DF8044B704710B487B0019039
:107F4C000091019B009A53E8004F04EB020043E8B8
:107F5C00000191F0000FF6D1059404900391049B5D
:107F6C00184607B05DF8044B704710B487B0019009
:107F7C000091019B009A53E8004FA4EB020043E8E8
:107F8C00000191F0000FF6D1059404900391049B2D
:107F9C00184607B05DF8044B704700B583B00190EC
:107FAC0001210198FFF781FF0346184603B05DF8E5
:107FBC0004FB00B583B0019000210198FFF78DFF01
:107FCC000346184603B05DF804FB000000B583B00F
:107FDC0001900B468DF80330019B002B03D108490F
:107FEC00E820FFF785FE019BDA689DF803300199C4
:107FFC00098A01FB03F31344184603B05DF804FB34
:10800C0054C8020000B583B001900091019B002B75
:10801C0003D10849F520FFF76BFE009B019AD2684B
:10802C009B1A019A128AB3FBF2F3DBB2184603B027
:10803C005DF804FB54C8020000B585B00190019BAB
:10804C00002B01D10E234CE0019B1B68002B03D1AC
:10805C002649FF20FFF74CFE019B5B68002B04D1E7
:10806C0022494FF48070FFF743FE019B9B68002B65
:10807C0004D11E4940F20110FFF73AFE019BDB6868
:10808C00002B04D119494FF48170FFF731FE019B8D
:10809C001B8A002B04D1154940F20310FFF728FE70
:1080AC00019B9A68019B5B68D31A8DF80F30019B7A
:1080BC001B68019A52681A6007E0019B1A681368E2
:1080CC00591C11609DF80F201A709DF80F305A1E24
:1080DC008DF80F20002BF0D1019B1B6800221A7128
:1080EC000023184605B05DF804FB00BF54C802001D
:1080FC0000B585B00190019B002B04D11F494FF4B2
:10810C009270FFF7F5FD0023039300238DF80A30DE
:10811C000DF10A031846FFF751FD019B1B681A6805
:10812C00019B5B689A421FD9019B1B681A68013A34
:10813C001A601B681B7819460198FFF747FF0390DC
:10814C00019B9A68019B1B681B68D31A8DF80B3036
:10815C00019B1B681B799DF80B209A4204D9019B4B
:10816C001B689DF80B201A719DF80A301846FFF712
:10817C003BFD039B184605B05DF804FB54C8020098
:10818C0010B584B001900091019B002B04D11549CE
:10819C0040F24710FFF7ACFD009B002B04D11149B6
:1081AC004FF4A470FFF7A4FD009B039300238DF8FC
:1081BC000B300DF10B031846FFF700FD019B1B68FC
:1081CC001C68621C1A6003990198FFF71BFF034699
:1081DC0023709DF80B301846FFF706FD00BF04B066
:1081EC0010BD00BF54C8020000B583B00190019BC4
:1081FC00002B03D10C493120FFF77AFD019B9B68C2
:10820C00002B0CD0019B5B69019A1069019A1168D3
:10821C00019A92689847019B00229A6000E000BF87
:10822C0003B05DF804FB00BFC4C802000EB400B577
:10823C0084B00190019B002B03D118494220FFF719
:10824C0057FD019B5B69002B03D114494320FFF7B9
:10825C004FFD019B1B68002B03D110494420FFF7F5
:10826C0047FD019B5B68002B03D10C494520FFF7B0
:10827C003FFD059B002B0AD00023039306AB039311
:10828C0003AB1A460599019800F0B8F900E000BF5D
:10829C0004B05DF804EB03B0704700BFC4C8020023
:1082AC0000B583B001900B468DF803309DF8033078
:1082BC000A2B03D10D210198FFF7F2FF019B1A68DD
:1082CC00019B9B68581C0199886013449DF80320FE
:1082DC001A70019B9A68019B5B689A4202D30198C1
:1082EC00FFF782FF00BF03B05DF804FB00B587B059
:1082FC00039002910192009300230593009B03F0DD
:10830C000103002B24D00BE0029B01330293059B4D
:10831C00013305939DF8133019460398FFF7C0FFFE
:10832C00029B1B788DF813309DF81330002BEBD18A
:10833C0006E0019B013B019320210398FFF7B0FF5E
:10834C00019A059B9A422ED9019B002BF1D12AE070
:10835C00029B002B0BD0029803F05CFF059006E00B
:10836C00019B013B019320210398FFF799FF019A90
:10837C00059B9A420FD9019B002BF1D10BE0029B7C
:10838C0001330293059B013305939DF81330194675
:10839C000398FFF785FF029B1B788DF813309DF82F
:1083AC001330002BEBD100BF07B05DF804FB0000CD
:1083BC0000B589B00390029101920093029B079340
:1083CC000123069307E0079A019BB2FBF3F3079393
:1083DC00069B01330693079A019B9A42F3D2009AAB
:1083EC00069B9A4201D9009B06930B9B03F0010359
:1083FC00002B22D10A9B002B1FD00B9B03F00203F6
:10840C00002B06D0009B002B03D130238DF81730A6
:10841C0002E020238DF8173008E00A9B013B0A93F9
:10842C009DF8173019460398FFF73AFF0A9B002B6B
:10843C0003D0069A0A9B9A42EFD301230793009B21
:10844C00012B03D9009B013B009309E0029A079B87
:10845C00B2FBF3F30493049A019B9A4200D205E019
:10846C00079B019A02FB03F30793E8E7029A079B29
:10847C00B2FBF3F30493049B079A02FB03F3029AF7
:10848C00D31A0293154A049B13441B78194603987C
:10849C00FFF706FF079A019BB2FBF3F30793079BC9
:1084AC00002BE3D10B9B03F00103002B11D00A9B93
:1084BC00002B0ED006E00A9B013B0A932021039867
:1084CC00FFF7EEFE0A9B002B03D0069A0A9B9A42FA
:1084DC00F1D300BF09B05DF804FB00BF98C90200DE
:1084EC0000B589B00590049103920293049B002B74
:1084FC00B8BF5B4206930123079307E0039B069AE0
:10850C0092FBF3F30693079B01330793039B069AA5
:10851C009A42F3DA029A079B9A4201D9029B07937B
:10852C000A9B002B0AD0049B002B04DB0B9B03F053
:10853C000403002B02D00A9B013B0A930B9B03F014
:10854C000203002B02D0029B002B16D00B9B03F0D6
:10855C000103002B11D10A9B002B0ED006E00A9BC5
:10856C00013B0A9320210598FFF79AFE0A9B002BEA
:10857C0003D0079A0A9B9A42F1D3049B002B07DA8B
:10858C00049B5B4204932D210598FFF789FE08E0BC
:10859C000B9B03F00403002B03D02B210598FFF752
:1085AC007FFE0B9B03F00203002B19D00B9B03F0F7
:1085BC000103002B14D1029B002B11D10A9B002B21
:1085CC000ED006E00A9B013B0A9330210598FFF779
:1085DC0067FE0A9B002B03D0079A0A9B9A42F1D3A1
:1085EC0004990B9B01930A9B0093029B039A059899
:1085FC00FFF7DEFE00BF09B05DF804FB00B58FB0DD
:10860C00059004910392059B002B04D1AD4940F2D7
:10861C005220FFF76DFB059B5B69002B04D1A94928
:10862C004FF41570FFF764FB059B1B68002B04D1FE
:10863C00A44940F25520FFF75BFB059B5B68002BC0
:10864C0004D1A04940F25620FFF752FB049B002BAB
:10865C0000F09381049B1B788DF83730049B013319
:10866C0004939DF83730002B00F07E819DF8373055
:10867C00252B40F06D8100230A9301230C93049B5E
:10868C001B788DF837309DF83730302B0DD0302BD0
:10869C001BDC2B2B11D02D2B17D10A9B43F0010384
:1086AC000A93049B0133049312E00A9B43F00203E8
:1086BC000A93049B013304930AE00A9B43F00403DE
:1086CC000A93049B0133049302E000230C9300BF34
:1086DC000C9B002BD3D1002309939DF837302A2B08
:1086EC000CD1039B1B68191D039A11601B68099A16
:1086FC0013440993049B013304931AE0049B1B78E5
:10870C008DF837309DF837302F2B12D99DF8373034
:10871C00392B0ED8049B01330493099A13469B0002
:10872C0013445B001A469DF837301344303B0993D1
:10873C00D3E700230B93049B1B788DF837309DF8FF
:10874C0037302E2B1DD1049B01330493049B1B78D3
:10875C008DF837309DF837302F2B12D99DF83730E4
:10876C00392B0ED8049B013304930B9A13469B00B0
:10877C0013445B001A469DF837301344303B0B937F
:10878C00E4E7049B1B788DF837309DF837306C2B61
:10879C0003D09DF83730682B07D1049B0133049329
:1087AC00049B1B788DF83730EFE79DF83730252B7D
:1087BC0000F0C480252BC0F2C680782B00F3C38058
:1087CC00582BC0F2C080583B202B00F2BC8001A279
:1087DC0052F823F0D5880200538902005389020015
:1087EC005389020053890200538902005389020005
:1087FC0053890200538902005389020053890200F5
:10880C0065880200878802005389020053890200A0
:10881C0053890200538902008788020053890200A1
:10882C0053890200538902005389020053890200C4
:10883C0053890200158902005389020053890200F2
:10884C00F988020053890200AB88020053890200A8
:10885C0053890200D5880200039B1B68191D039ADB
:10886C0011601B680C930C9B8DF81F309DF81F300A
:10887C0019460598FFF714FD66E0039B1B68191D4C
:10888C00039A11601B680C930A9B0193099B00933C
:10889C000B9B0A220C990598FFF722FE54E0039BD0
:1088AC001B68191D039A11601B680C930C990A9B89
:1088BC000193099B00930B9B0A220598FFF778FD07
:1088CC0042E000BF2CC90200039B1B68191D039AD0
:1088DC0011601B680C930C990A9B0193099B0093E4
:1088EC000B9B10220598FFF763FD2DE0039B1B6883
:1088FC00191D039A11601B6808930A9B099A089921
:10890C000598FFF7F3FC1FE0039B1B68191D039AE6
:10891C0011601B680C9330210598FFF7C1FC78217E
:10892C000598FFF7BDFC0C990023019308230093D5
:10893C00082310220598FFF73BFD05E0252105983B
:10894C00FFF7AEFC00E000BF049B0133049305E08D
:10895C009DF8373019460598FFF7A2FC049B1B784D
:10896C00002B7FF477AE00E000BF059B1B7B002B38
:10897C0004D00598FFF738FC00E000BF0FB05DF89D
:10898C0004FB00BF00B583B001900198FFF754FBC6
:10899C000346184603B05DF804FB00B58BB001909C
:1089AC000091019B1B8A043B0793009A079B13447D
:1089BC00DA1C079BB2FBF3F38DF81B300198FFF721
:1089CC0097FB0590059B002B01D1002338E0059BFC
:1089DC0000221A71059B01225A71079B9AB2059BC2
:1089EC00DA80059B09939DF81B30013B0493099B8E
:1089FC00019A1A60002308931DE00198FFF778FB99
:108A0C000390039B002B0ED0059B5B790133DAB2EC
:108A1C00059B5A71099B039A1A60039B019A1A6071
:108A2C00039B099304E0059800F00EF8002307E07F
:108A3C00089B01330893089A049B9A42DDD3059B4B
:108A4C0018460BB05DF804FB00B58BB00190019B90
:108A5C000793079B5B798DF81B30019B08939DF85E
:108A6C001B30013B05930023099305E0089B1B6811
:108A7C000893099B01330993099A059B9A42F5D3F4
:108A8C00089B1B680493019B0893002309930BE03C
:108A9C00089B1B68039308990498FFF771FB039BD1
:108AAC000893099B013309939DF81B30099A9A424C
:108ABC00EED300BF00BF0BB05DF804FB00B585B072
:108ACC000190019B0393039B043301211846FFF78C
:108ADC0034FA00BF05B05DF804FB00B587B0019017
:108AEC00019B0593059B043301211846FFF73DFAC2
:108AFC000346039303AB0493049B1B78002B02D116
:108B0C000198FFF7A1FF00BF07B05DF804FB000060
:108B1C0000B591B00390029101920093039B002B3E
:108B2C0003D14349B620FFF7E3F8039B0993039B5A
:108B3C000F93099BDB881A46099B5B7902FB03F3B5
:108B4C00043B0893009A089B9A4203D33849C420EB
:108B5C00FFF7CEF8099BDB880793009B1A1D079B38
:108B6C00B2FBF3F30E93009B0433079AB3FBF2F2C0
:108B7C00079901FB02F29B1A0D93019B1A68009B4B
:108B8C001344089A9A4203D2089A009BD31A01E024
:108B9C00019B1B680C93019B0C9A1A6005E00F9BC0
:108BAC001B680F930E9B013B0E930E9B002BF6D173
:108BBC0000230B93079A0D9BD31A0A930A9A0C9BCA
:108BCC00934228BF13460A932AE0029A0B9B134444
:108BDC0006930F9A0D9B1344043305939DF848306C
:108BEC00002B05D00A9A0599069803F043FB04E084
:108BFC000A9A0699059803F03DFB00230D930F9BF1
:108C0C001B680F930C9A0A9BD31A0C930B9A0A9B12
:108C1C0013440B93079A0C9B934228BF13460A9359
:108C2C000C9B002BD1D100BF00BF11B05DF804FB31
:108C3C00A8C9020000B589B0059004910392029373
:108C4C00039B079307AA00230093029B04990598A2
:108C5C00FFF75EFF079B039A9A4203D00349F62065
:108C6C00FFF746F800BF09B05DF804FBA8C9020085
:108C7C0000B589B00590049103920293039B07936E
:108C8C0007AA01230093029B04990598FFF740FF64
:108C9C00079B039A9A4204D004494FF48070FFF763
:108CAC0027F800BF09B05DF804FB00BFA8C902009B
:108CBC0082B00190019B9B6800229A60019B9B688B
:108CCC0000221A61019B9B6800225A61019B9B68E0
:108CDC000022DA60019B9B6800225A60019B9B6812
:108CEC0000221A6000BF02B07047000000B583B0CC
:108CFC0001900091019B002B03D110495020FEF7ED
:108D0C00F7FF009B002B03D10C495120FEF7F0FF1D
:108D1C00019B009A1A60019B1B681A68019B5A60A0
:108D2C00019B5A68019B1B685B689A4202D1019BAC
:108D3C0000225A6000BF03B05DF804FB24CB020094
:108D4C0000B583B00190019B002B03D11449632023
:108D5C00FEF7CEFF019B1B68002B03D1104964204A
:108D6C00FEF7C6FF019B5B68002B14D0019B5B6870
:108D7C001A46019B1B689B6813441A46019B5A6058
:108D8C00019B5A68019B1B685B689A4204D1019B4A
:108D9C0000225A6000E000BF03B05DF804FB00BF86
:108DAC0024CB020000B585B00190019800F00EF8BC
:108DBC000390039B002B01D0039B00E0024B184651
:108DCC0005B05DF804FB00BF2CCC020086B001900E
:108DDC00164B0593164B04931FE0049A059BD31A6C
:108DEC00DB10DA0F13445B10DB00059A134403937A
:108DFC00039B1B680293029A019B9A4202D9039B24
:108E0C0004930AE0029A019B9A4203D2039B083313
:108E1C00059302E0039B5B6804E0059A049B9A426D
:108E2C00DBD30023184606B0704700BF2CD00200DD
:108E3C0054D10200BFF34F8F00BF064BDB6803F425
:108E4C00E0620449044B1343CB60BFF34F8F00BF68
:108E5C0000BFFDE700ED00E00400FA0582B01D4BF9
:108E6C001B68B3F1FF3F0AD11B4B1B68DBB20193AC
:108E7C001A4B1B681B0903F00F03009305E0154BFD
:108E8C001B680193164B1B680093019B062B1DD18D
:108E9C00009B033B042B17D801A252F823F000BF10
:108EAC00C18E0200C58E0200C98E0200CD8E02005A
:108EBC00D18E020001230AE0012308E0012306E021
:108ECC00012304E0012302E0012300E00023184603
:108EDC0002B0704730010010E00F00F0E80F00F016
:108EEC003401001082B0174B1B68DBB20193164B98
:108EFC001B681B0903F00F030093019B062B1DD16C
:108F0C00009B033B042B17D801A252F823F000BF9F
:108F1C00318F0200358F0200398F02003D8F020025
:108F2C00418F020001230AE0002308E0002306E041
:108F3C00002304E0002302E0002300E00023184695
:108F4C0002B07047E00F00F0E80F00F082B01D4B4C
:108F5C001B68B3F1FF3F0AD11B4B1B68DBB20193BB
:108F6C001A4B1B681B0903F00F03009305E0154B0C
:108F7C001B680193164B1B680093019B062B1DD19C
:108F8C00009B033B042B17D801A252F823F000BF1F
:108F9C00B18F0200B58F0200B98F0200BD8F0200A5
:108FAC00C18F020001230AE0012308E0012306E03F
:108FBC00012304E0012302E0012300E00023184612
:108FCC0002B0704730010010E00F00F0E80F00F025
:108FDC003401001082B0174B1B68DBB20193164BA7
:108FEC001B681B0903F00F030093019B062B1DD17B
:108FFC00009B033B042B17D801A252F823F000BFAF
:10900C002190020025900200299002002D90020070
:10901C003190020001230AE0002308E0002306E05F
:10902C00002304E0002302E0002300E000231846A4
:10903C0002B07047E00F00F0E80F00F082B01D4B5B
:10904C001B68B3F1FF3F0AD11B4B1B68DBB20193CA
:10905C001A4B1B681B0903F00F03009305E0154B1B
:10906C001B680193164B1B680093019B062B1DD1AB
:10907C00009B033B042B17D801A252F823F000BF2E
:10908C00A1900200A5900200A9900200AD900200F0
:10909C00B190020001230AE0012308E0012306E05D
:1090AC00012304E0012302E0012300E00023184621
:1090BC0002B0704730010010E00F00F0E80F00F034
:1090CC003401001082B0174B1B68DBB20193164BB6
:1090DC001B681B0903F00F030093019B062B1DD18A
:1090EC00009B033B042B17D801A252F823F000BFBE
:1090FC001191020015910200199102001D910200BC
:10910C002191020001230AE0002308E0002306E07D
:10911C00002304E0002302E0002300E000231846B3
:10912C0002B07047E00F00F0E80F00F082B0174B70
:10913C001B68DBB20193164B1B681B0903F00F0372
:10914C000093019B062B1DD1009B033B042B17D8CE
:10915C0001A252F823F000BF799102007D91020028
:10916C0081910200859102008991020001230AE09D
:10917C00002308E0002306E0002304E0002302E0C3
:10918C00002300E00023184602B07047E00F00F007
:10919C00E80F00F082B01D4B1B68B3F1FF3F0AD102
:1091AC001B4B1B68DBB201931A4B1B681B0903F0AA
:1091BC000F03009305E0154B1B680193164B1B68BE
:1091CC000093019B062B1DD1009B033B042B17D84E
:1091DC0001A252F823F000BFF9910200FD910200A8
:1091EC0001920200059202000992020000230AE09B
:1091FC00002308E0012306E0012304E0012302E040
:10920C00012300E00023184602B070473001001023
:10921C00E00F00F0E80F00F03401001082B01D4B9D
:10922C001B68B3F1FF3F0AD11B4B1B68DBB20193E8
:10923C001A4B1B681B0903F00F03009305E0154B39
:10924C001B680193164B1B680093019B062B1DD1C9
:10925C00009B033B042B17D801A252F823F000BF4C
:10926C008192020085920200899202008D92020086
:10927C009192020001230AE0012308E0012306E099
:10928C00012304E0012302E0012300E0002318463F
:10929C0002B0704730010010E00F00F0E80F00F052
:1092AC003401001082B01D4B1B68B3F1FF3F0AD193
:1092BC001B4B1B68DBB201931A4B1B681B0903F099
:1092CC000F03009305E0154B1B680193164B1B68AD
:1092DC000093019B062B1DD1009B033B042B17D83D
:1092EC0001A252F823F000BF099302000D93020073
:1092FC0011930200159302001993020001230AE056
:10930C00012308E0012306E0012304E0012302E02D
:10931C00012300E00023184602B070473001001012
:10932C00E00F00F0E80F00F03401001082B0154B94
:10933C001B680193144B1B680093019B062B1DD1DA
:10934C00009B033B042B17D801A252F823F000BF5B
:10935C007193020075930200799302007D930200D1
:10936C008193020000230AE0002308E0002306E0BA
:10937C00012304E0012302E0012300E0002318464E
:10938C0002B07047300100103401001082B0154B50
:10939C001B680193144B1B680093019B062B1DD17A
:1093AC00009B033B042B17D801A252F823F000BFFB
:1093BC00D1930200D5930200D9930200DD930200F1
:1093CC00E193020000230AE0002308E0002306E0FA
:1093DC00002304E0012302E0012300E000231846EF
:1093EC0002B07047300100103401001008B5FFF7CF
:1093FC00CDFF0346002B07D04FF010234FF08042D7
:10940C00D3F80832C2F8583500BF08BD00BF044B72
:10941C00D3F80034002BFAD000BF00BF704700BF58
:10942C0000E0014000B583B00190054A019BC2F8F1
:10943C000435FFF7EBFF00BF03B05DF804FB00BF82
:10944C0000E00140024B034A1A6000BF704700BFA6
:10945C00242B00200090D00308B5FFF7FFFC034637
:10946C00002B06D0964B1B681B0A964A03F01F0371
:10947C001360FFF737FD0346002B02D0924B934A43
:10948C001A60FFF763FD0346002B06D0904B1B6858
:10949C005B0B904A03F007031360FFF79BFD034639
:1094AC00002B05D08C4BDB688B4A23F08073D36088
:1094BC00FFF7C4FD0346002B0ED04FF08043002273
:1094CC00C3F80C214FF080430022C3F810214FF059
:1094DC0080430022C3F83825FFF7F4FD0346002B28
:1094EC0002D07E4B03221A60FFF720FE0346002BAE
:1094FC000BD07B4B05221A607A4B01221A607A4BF7
:10950C0000221A60794B3F221A60FFF743FE034694
:10951C00002B76D04FF08053754AD3F80434C2F840
:10952C0020354FF08053724AD3F80834C2F82435F2
:10953C004FF080536E4AD3F80C34C2F828354FF0F4
:10954C0080536B4AD3F81034C2F82C354FF080534B
:10955C00674AD3F81434C2F830354FF08053644A5C
:10956C00D3F81834C2F834354FF08053604AD3F82E
:10957C001C34C2F840354FF080535D4AD3F8203488
:10958C00C2F844354FF08053594AD3F82434C2F80A
:10959C0048354FF08053564AD3F82834C2F84C352E
:1095AC004FF08053524AD3F82C34C2F850354FF058
:1095BC0080534F4AD3F83034C2F854354FF08053AF
:1095CC004B4AD3F83434C2F860354FF08053484AD4
:1095DC00D3F83834C2F864354FF08053444AD3F88A
:1095EC003C34C2F868354FF08053414AD3F84034CC
:1095FC00C2F86C354FF080533D4AD3F84434C2F86E
:10960C007035FFF70BFE0346002B05D0394B1B685A
:10961C00394A03F04F031360FFF744FE0346002B57
:10962C000DD04FF08043D3F8003403F00103002B2E
:10963C0005D04FF080436FF00102C3F80024FFF710
:10964C0075FE0346002B05D02C4B1B682B4A43F4AC
:10965C00806313602A4BD3F88830294A43F4700393
:10966C00C2F88830BFF34F8F00BFBFF36F8F00BFBE
:10967C00FFF7BCFE4FF01023D3F80032002B05DBB4
:10968C004FF01023D3F80432002B15DA0120FFF72A
:10969C00C9FE4FF010231522C3F80022FFF7B6FEC7
:1096AC004FF010231522C3F80422FFF7AFFE002061
:1096BC00FFF7B8FEFFF7BEFBFFF7C4FE00BF08BD07
:1096CC00240300104035014074C007400DF0ADBAC2
:1096DC00440200103C050040F0ED00E0A005004005
:1096EC001056004088560040185600401456004052
:1096FC0000C0004058020010E40E00403C1700402F
:10970C0000ED00E000B583B00190019B1B6818468A
:10971C0000F0D7F80346002B04D105494FF4F6703E
:10972C00FEF7E6FA4FF0A043184603B05DF804FBD1
:10973C0054D1020000B585B00190084611461A4676
:10974C0003468DF803300B468DF8023013468DF826
:10975C00013001AB1846FFF7D5FF03909DF80320AD
:10976C009DF802305B001A439DF801309B001A43B0
:10977C009DF818301B0242EA03019DF81C301B04B3
:10978C00019A1943039B02F5E07243F8221000BFC3
:10979C0005B05DF804FB00B585B003900023019380
:1097AC00002300930023012201210398FFF7C2FF3D
:1097BC0000BF05B05DF804FB00B585B003900B4607
:1097CC008DF80B309DF80B30002201920022009294
:1097DC00002200210398FFF7ADFF00BF05B05DF834
:1097EC0004FB00B585B0019001AB1846FFF78AFF6A
:1097FC000390019B012202FA03F31946039800F02F
:10980C004CF800BF05B05DF804FB00B585B00190C5
:10981C0001AB1846FFF776FF0390019B012202FA79
:10982C0003F31946039800F042F800BF05B05DF849
:10983C0004FB00B585B0019001AB1846FFF762FF41
:10984C000390039BD3F804350293029BDA43019BEC
:10985C00012101FA03F31A40039BC3F80825019B6D
:10986C0001229A40029B1A40039BC3F80C2500BFAF
:10987C0005B05DF804FB00B583B001900091009B2E
:10988C00002B03D10198FFF7C0FF02E00198FFF70E
:10989C00A8FF00BF03B05DF804FB82B001900091FB
:1098AC00019B009AC3F8082500BF02B0704782B034
:1098BC0001900091019B009AC3F80C2500BF02B0E7
:1098CC00704784B00190019B5B09029300230393C2
:1098DC00029B002B03D14FF0FF33039300BF019B7E
:1098EC0003F01F030193039A019B22FA03F303F085
:1098FC000103002B14BF01230023DBB2184604B074
:10990C007047000000B583B00190019B032B03D975
:10991C0007494720FEF7ECF9064A019B13441B78D4
:10992C0001211846FFF7A7FF00BF03B05DF804FB49
:10993C0084D10200E8D1020000B583B0002301936A
:10994C0005E00198FFF7DEFF019B01330193019BBA
:10995C00032BF6D900BF00BF03B05DF804FB000079
:10996C0000B583B00190019B032B03D907495F20FD
:10997C00FEF7BEF9064A019B13441B781846FFF705
:10998C0058FF00BF03B05DF804FB00BF84D1020098
:10999C00E8D1020000B583B00023019309E0094A25
:1099AC00019B13441B781846FFF7F5FE019B01330E
:1099BC000193019B032BF2D9FFF7BEFF00BF03B04D
:1099CC005DF804FBE8D1020000B583B000230193DD
:1099DC000AE0094A019B13441B7803211846FFF740
:1099EC00EBFE019B01330193019B032BF1D900BFCB
:1099FC0000BF03B05DF804FBECD1020000B583B0EE
:109A0C000190019B03F00103002B01D0FFF7C2FF73
:109A1C00019B03F00203002B01D0FFF7D5FF00BF21
:109A2C0003B05DF804FB000082B003468DF80730EC
:109A3C009DF90730002B13DB9DF8073003F01F0254
:109A4C0009499DF907305B09012000FA02F2203325
:109A5C0041F82320BFF34F8F00BFBFF36F8F00BFC0
:109A6C0000BF02B0704700BF00E100E0044BD3F828
:109A7C000034002B14BF01230023DBB218467047BF
:109A8C000000014008B502F06BFA034683F00103B5
:109A9C00DBB2002B03D109497B20FEF729F9FFF734
:109AAC00E5FF034683F00103DBB2002B04D000F08A
:109ABC0091FA034B00229A7000BF08BDF8D1020046
:109ACC006031002000B583B000230193184B1B7844
:109ADC00002B02D0852301931CE0154B00229A60C9
:109AEC00134B00225A60124B00221A61104B0022B9
:109AFC00DA60104800F034FA019002F031FA0346B3
:109B0C0083F00103DBB2002B01D000F04FFA084BBD
:109B1C0001221A70FFF7AAFF0346002B02D0044B58
:109B2C0001229A70019B184603B05DF804FB00BF3C
:109B3C0060310020199C020084B00190019B1B68CD
:109B4C000393039B002B03D0039B1A68019B1A60A1
:109B5C00039B184604B0704700B583B0164B1B78B6
:109B6C00002B04D1154940F21710FEF7C1F8124B27
:109B7C00DB68002B04D111494FF48C70FEF7B8F858
:109B8C0000238DF807300DF107031846FEF716F881
:109B9C00094BDB68013B084AD360074BDB68002BA1
:109BAC0001D1FFF76FFF9DF807301846FEF71CF840
:109BBC0000BF03B05DF804FB60310020F8D1020057
:109BCC0000B585B003468DF807309DF80730002BA3
:109BDC0002D10C4B039301E00B4B03930398FFF75B
:109BEC00ABFF0290029B002B06D0029B5B689DF89A
:109BFC00072010469847F1E700BF00BF05B05DF89D
:109C0C0004FB00BF683100207031002000B583B028
:109C1C0003468DF807309DF80730002B05D10A4B11
:109C2C0001225A700020FFF7CBFF9DF80730012B63
:109C3C0005D1054B01229A700120FFF7C1FF00BF2F
:109C4C0003B05DF804FB00BF6031002000B583B0A9
:109C5C0001900091019B002B05D1054B01225A70FC
:109C6C000020FFF7ADFF00BF03B05DF804FB00BFA1
:109C7C006031002000B585B0034600918DF80730A7
:109C8C009DF80730032B29D0032B35DC002B02D099
:109C9C00012B04D030E00020FFF7C6FE2DE000239E
:109CAC008DF80F300DF10F031846FDF787FF154B9C
:109CBC001B7883F00103DBB2002B01D0FFF702FF0E
:109CCC00104BDB6801330F4AD3600E4B01229A70A4
:109CDC009DF80F301846FDF787FF0EE0094B1B78F7
:109CEC00002B04D1084940F25220FEF701F800F095
:109CFC005DF9FFF731FF00E000BF00BF05B05DF874
:109D0C0004FB00BF60310020F8D1020082B0034692
:109D1C008DF807309DF90730002B0CDB9DF80730D0
:109D2C0003F01F0205499DF907305B09012000FA79
:109D3C0002F241F8232000BF02B0704700E100E0BE
:109D4C0082B0034600918DF807309DF90730002B47
:109D5C000ADB009BDAB20C499DF907305201D2B2F2
:109D6C000B4483F800230BE0009BDAB207499DF803
:109D7C00073003F00F03043B5201D2B20B441A76A6
:109D8C0000BF02B0704700BF00E100E000ED00E052
:109D9C0082B00190019B1B0B5BB2184602B070475E
:109DAC0000B583B003460A468DF8073013468DF88C
:109DBC0006309DF80630012B03D99DF80630032B95
:109DCC000BD99DF80630042B03D99DF80630072BD0
:109DDC0003D908496B20FDF78BFF9DF806209DF9F0
:109DEC00073011461846FFF7ABFF00BF03B05DF814
:109DFC0004FB00BF68D2020000B583B003468DF8A7
:109E0C0007309DF907301846FFF780FF00BF03B0FD
:109E1C005DF804FB82B003468DF807300F4A9DF9BC
:109E2C000730002B00DA1F335B115BB252F8232092
:109E3C009DF90730594203F01F0301F01F0158BF71
:109E4C004B425BB222FA03F303F00103002B14BF65
:109E5C0001230023DBB2184602B0704700E100E09A
:109E6C0082B001904FF08042019BC2F8083300BFD2
:109E7C0002B0704782B003468DF807309DF807306A
:109E8C0003F1804301221A6000BF02B0704784B016
:109E9C000346ADF80630BDF8063003F180430022CE
:109EAC001A60BDF8063003F180431B680393039BD3
:109EBC0000BF04B0704782B00346ADF80630BDF861
:109ECC00063003F180431B68002B14BF01230023D1
:109EDC00DBB2184602B0704782B001904FF080425E
:109EEC00019BC2F8183500BF02B070474FF0804399
:109EFC00D3F818341B0C03F00103002B14BF0123FF
:109F0C000023DBB21846704700B583B006238DF8EA
:109F1C0007304FF08040FFF73BFF03461846FFF732
:109F2C0079FF034683F00103DBB2002B13D04FF013
:109F3C008040FFF72DFF03461A469DF8073019465F
:109F4C001046FFF72DFF4FF08040FFF721FF03462F
:109F5C001846FFF751FF00BF03B05DF804FB00008B
:109F6C0000B585B00190019B002B03D10D49A420B5
:109F7C00FDF7BEFE002303930B4B1B79002B02D085
:109F8C008523039308E0084A019B1360064B0122CA
:109F9C001A71054B00225A71039B184605B05DF8E7
:109FAC0004FB00BFA0D202007431002008B5074B9F
:109FBC001B79002B03D10649BD20FDF799FEFFF755
:109FCC00A3FF0120FFF788FF00BF08BD74310020FC
:109FDC00A0D2020008B50D4B1B79002B03D10C4904
:109FEC00F720FDF785FE0220FFF73AFF4FF4827051
:109FFC00FFF74DFF0C20FFF73DFF00BFFFF776FF8B
:10A00C000346002BFAD100BF00BF08BD74310020FD
:10A01C00A0D2020008B54FF48070FFF74CFF034646
:10A02C00002B14D04FF48070FFF731FF0120FFF7A5
:10A03C0017FF114B5B7983F00103DBB2002B06D0C9
:10A04C000D4B01225A710C4B1B68002098474FF4A2
:10A05C008270FFF730FF0346002B0AD04FF482705A
:10A06C00FFF715FF0220FFF7FBFE034B1B680120D7
:10A07C00984700BF08BD00BF7431002000B583B005
:10A08C000346ADF80630BDF80630184600F026F849
:10A09C0003461B68012B0CBF01230023DBB21846BF
:10A0AC0003B05DF804FB00B585B00346ADF806308F
:10A0BC00BDF80630184600F011F803461A46002386
:10A0CC001360BDF80630184600F008F803461B680C
:10A0DC000393039B00BF05B05DF804FB82B00346FD
:10A0EC00ADF80630BDF8063003F1804303F5C043EC
:10A0FC00184602B07047000082B00190034BD3F8B1
:10A10C000423019B1340184602B0704700600040C6
:10A11C0082B00190054A019B03F5A27352F82330DB
:10A12C001B0A03F01F03184602B070470060004082
:10A13C0082B00190064A019B03F5A27352F82330BA
:10A14C001B0C03F00303DBB2184602B0704700BFD0
:10A15C000060004000B583B00190019B1B6818465D
:10A16C0000F096F80346002B04D105494FF4F67025
:10A17C00FDF7BEFD4FF0A043184603B05DF804FB9D
:10A18C003CD3020000B585B001900B468DF803302E
:10A19C0001AB1846FFF7DEFF0390019A039B02F513
:10A1AC00E07253F82230019A23F44031039B02F5FC
:10A1BC00E07243F82210019A039B02F5E07253F807
:10A1CC0022309DF8032012041146019A1943039B77
:10A1DC0002F5E07243F8221000BF05B05DF804FBF5
:10A1EC0000B585B0019001AB1846FFF7B3FF0390A3
:10A1FC00019A039B02F5E07253F822301B0C03F01A
:10A20C000303DBB2184605B05DF804FB86B003907F
:10A21C00029101924FF0A0430493039B059319E024
:10A22C00059B9B0018336B4453F8083CD3F820254E
:10A23C00019B1A60059B9B0018336B4453F8083C38
:10A24C00019A1268C3F82025019B04330193059BE6
:10A25C0001330593039A029B1344059A9A42DFD368
:10A26C0000BF00BF06B0704700B585B0019001ABD0
:10A27C001846FFF76FFF0390019B012202FA03F3CC
:10A28C001A46039BC3F8202500BF05B05DF804FBFC
:10A29C0084B00190019B5B09029300230393029B02
:10A2AC00002B03D14FF0FF33039300BF019B03F04E
:10A2BC001F030193039A019B22FA03F303F001039A
:10A2CC00002B14BF01230023DBB2184604B07047E7
:10A2DC0084B001900091009B0393019BDB080293D7
:10A2EC00019B03F0070301930122019B02FA03F384
:10A2FC000399029A0A4412781340184604B0704726
:10A30C0082B00190044A019B1344303393F900301E
:10A31C00184602B0704700BF7C31002082B001901B
:10A32C00034A019B52F82330184602B0704700BF15
:10A33C007C31002084B00190074A019B13445033B8
:10A34C0093F900308DF80F309DF80F3023F0C003D7
:10A35C00184604B0704700BF7C31002084B00190D7
:10A36C00074A019B1344503393F900308DF80F309A
:10A37C009DF80F309B09DBB2184604B0704700BF44
:10A38C007C31002000B585B00190019A012100209C
:10A39C00FFF73CFF002303930BE0039B9B00019A08
:10A3AC0013441B68002B01D0012306E0039B0133EF
:10A3BC000393039B002BF0D00023184605B05DF8E7
:10A3CC0004FB000000B587B00190002305935BE00F
:10A3DC00344A059B1344503393F90030B3F1FF3FDB
:10A3EC004ED00598FFF7A6FF049001990498FFF74B
:10A3FC006FFF0346002B44D00598FFF7AFFF0346D1
:10A40C008DF80F300498FFF7EBFE03468DF80E30F5
:10A41C009DF80E30022B01D1032300E002238DF8AE
:10A42C000D309DF80D3019460498FFF7ABFE0498DB
:10A43C00FFF71AFF0498FFF763FF03461846FFF770
:10A44C006DFF0290029B002B1BD09DF80F30032B4D
:10A45C000FD09DF80E30022B03D19DF80F30012B3D
:10A46C0007D09DF80E30032B0BD19DF80F30022B2B
:10A47C0007D19DF80F20029B11460498984700E0E5
:10A48C0000BF059B01330593059B032BA0D90198B5
:10A49C00FFF778FF0346002B97D100BF00BF07B032
:10A4AC005DF804FB7C31002000B589B000230693D5
:10A4BC00002300934FF48073ADF8123001230793FF
:10A4CC000023059321E0BDF812301846FFF7D6FDA6
:10A4DC000346002B0ED00798FFF70EFE0346002B09
:10A4EC0008D0BDF812301846FFF7DDFD069A079B21
:10A4FC0013430693079B5B000793BDF8123004339C
:10A50C00ADF81230059B01330593059B072BDAD967
:10A51C004FF4BE70FFF7B2FD0346002B0DD04FF485
:10A52C00BE70FFF7C0FD069B43F0004306936B46DD
:10A53C001A4601210020FFF769FE069BDBB2002BB7
:10A54C0029D0012307930023059321E0079A069B4A
:10A55C001340002B16D00598FFF7DAFD03900598F1
:10A56C00FFF7E6FD03468DF80B300598FFF7D6FE96
:10A57C000190019B002B05D09DF80B20019B1146EF
:10A58C0003989847079B5B000793059B0133059342
:10A59C00059B072BDAD9069B002B03DA6B46184672
:10A5AC00FFF710FF00BF09B05DF804FB08B5064BC0
:10A5BC001B68002B03D105495120FDF799FB024B79
:10A5CC001B68984700BF08BDD8310020E8D30200B3
:10A5DC0082B00190019B044A934201D1034B00E0ED
:10A5EC000023184602B0704700200040D8310020EC
:10A5FC0000B587B001900091019B002B03D11C4941
:10A60C007720FDF775FB0198FFF7E2FF0590059B9E
:10A61C00002B25D000238DF8133000238DF80B3040
:10A62C000DF10B031846FDF7C9FA059B1B79002B9E
:10A63C0003D001238DF8133005E0059B009A1A60B6
:10A64C00059B01221A719DF80B301846FDF7CCFAC8
:10A65C009DF81330002B03D011230393039B02E0CE
:10A66C0000230393039B184607B05DF804FB00BF5F
:10A67C00E8D3020000B589B001900091009B0793CC
:10A68C00019B1B788DF80830019B5B680393019B41
:10A69C009B68DBB28DF81030019BDB680593019B46
:10A6AC001B69DBB28DF81830074A079B52F8233030
:10A6BC000649079A51F8221002AA1046984700BF83
:10A6CC0009B05DF804FB00BFE0310020EC31002044
:10A6DC0010B58AB00390029101920093039B1B78F2
:10A6EC0009932249099B019A41F823202049099B8F
:10A6FC00009A41F82320002308931E4B04AC0FCB87
:10A70C0084E80F00029B1B788DF81030029B5B785D
:10A71C008DF81130029B9B788DF81230029BDB7800
:10A72C008DF81330029B1B798DF81530029B5B79E9
:10A73C008DF81630029B9B680693029B1B7B8DF851
:10A74C001C30029B5B7B8DF81D30039B181D019BFD
:10A75C00002B01D0084A00E00022099B04A900F05C
:10A76C005DFA0890089B18460AB010BDE031002035
:10A77C00EC31002000D6020081A6020082B0034614
:10A78C008DF807309DF90730002B0CDB9DF8073056
:10A79C0003F01F0205499DF907305B09012000FAFF
:10A7AC0002F241F8232000BF02B0704700E100E044
:10A7BC0082B0034600918DF807309DF90730002BCD
:10A7CC000ADB009BDAB20C499DF907305201D2B278
:10A7DC000B4483F800230BE0009BDAB207499DF889
:10A7EC00073003F00F03043B5201D2B20B441A762C
:10A7FC0000BF02B0704700BF00E100E000ED00E0D8
:10A80C0082B00190019B03F06043B3F1005F0CBF79
:10A81C0001230023DBB2184602B0704782B00190CE
:10A82C00019B1B0B5BB2184602B0704700B583B09E
:10A83C0003460A468DF8073013468DF806309DF80E
:10A84C000630012B03D99DF80630032B0BD99DF84C
:10A85C000630042B03D99DF80630072B03D9084981
:10A86C006B20FDF745FA9DF806209DF9073011463F
:10A87C001846FFF79DFF00BF03B05DF804FB00BF57
:10A88C0010D6020000B583B003468DF807309DF951
:10A89C0007301846FFF772FF00BF03B05DF804FBEA
:10A8AC0082B001900B468DF803309DF80330019A6D
:10A8BC00134401221A6000BF02B0704784B00190AB
:10A8CC000B46ADF80230BDF80230019A1344002259
:10A8DC001A60BDF80230019A13441B680393039B62
:10A8EC0000BF04B0704782B001900B46ADF8023047
:10A8FC00BDF80230019A13441B68002B14BF0123CE
:10A90C000023DBB2184602B0704782B00190009170
:10A91C00019B009AC3F8042300BF02B0704782B0B9
:10A92C0001900091019B009AC3F8082300BF02B06C
:10A93C00704782B00190019B0722C3F8002500BF2D
:10A94C0002B0704784B00390029101920093039B74
:10A95C00029AC3F80825039B019AC3F80C25039BA4
:10A96C00009AC3F8102500BF04B0704782B0019064
:10A97C000091009A019BC3F8242500BF02B07047D8
:10A98C0084B0039002910192029A039BC3F8442570
:10A99C00039B019AC3F8482500BF04B0704784B0EC
:10A9AC00039002910192029A039BC3F83425039BF6
:10A9BC00019AC3F8382500BF04B0704784B00190E9
:10A9CC000B468DF8033013468DF802309DF802309B
:10A9DC00002B14BF01230023DBB203939DF803303B
:10A9EC00032B10D0032B13DC012B02D0022B05D030
:10A9FC000EE0039B43F0020303930AE0039B43F036
:10AA0C000403039305E0039B43F00603039300E068
:10AA1C0000BF019B039AC3F8542500BF04B07047D4
:10AA2C0082B001900B468DF803309DF80320019BFA
:10AA3C00C3F8C02500BF02B0704782B00190019BE3
:10AA4C000122C3F8502500BF02B0704782B00190BC
:10AA5C00019B0022C3F8502500BF02B0704782B0A2
:10AA6C000190019B0122C3F8402500BF02B0704742
:10AA7C0082B00190019B0022C3F8402500BF02B0B8
:10AA8C007047000000B583B00190019B1B6818460D
:10AA9C0000F0A3F80346002B04D105494FF4F670DF
:10AAAC00FDF726F94FF0A043184603B05DF804FB00
:10AABC0040D6020000B585B00190084611461A46F2
:10AACC0003468DF803300B468DF8023013468DF893
:10AADC00013001AB1846FFF7D5FF03909DF803201A
:10AAEC009DF802305B001A439DF801309B001A431D
:10AAFC009DF818301B0242EA03019DF81C301B0420
:10AB0C00019A1943039B02F5E07243F8221000BF2F
:10AB1C0005B05DF804FB00B585B0039000230193EC
:10AB2C00002300930023012201210398FFF7C2FFA9
:10AB3C0000BF05B05DF804FB00B585B003900B4673
:10AB4C008DF80B309DF80B30002201920022009200
:10AB5C00002200210398FFF7ADFF00BF05B05DF8A0
:10AB6C0004FB00B585B0019001AB1846FFF78AFFD6
:10AB7C000390019B012202FA03F31946039800F09B
:10AB8C0018F800BF05B05DF804FB00B585B0019066
:10AB9C0001AB1846FFF776FF0390019B012202FAE6
:10ABAC0003F31946039800F00EF800BF05B05DF8EA
:10ABBC0004FB82B001900091019B009AC3F8082518
:10ABCC0000BF02B0704782B001900091019B009AC7
:10ABDC00C3F80C2500BF02B0704784B00190019BF4
:10ABEC005B09029300230393029B002B03D14FF0CC
:10ABFC00FF33039300BF019B03F01F030193039AE0
:10AC0C00019B22FA03F303F00103002B14BF012371
:10AC1C000023DBB2184604B07047000000B58DB0BD
:10AC2C000590049103920293049B002B03D16C4971
:10AC3C00AC20FDF75DF8059B1B791A461346DB002B
:10AC4C0013449B00674A13440A930A9B1B7F002BF7
:10AC5C0003D008230793079BBDE0059B1B68099352
:10AC6C00059B1A68059B1B7919465F4B53F82130DD
:10AC7C0019461046FFF7BCFC0346002B03D01123EA
:10AC8C000793079BA7E00A9B039A1A600A9B029AF8
:10AC9C005A60049B1B7B012B05D8049B1B78184620
:10ACAC00FFF773FF04E0049B1B781846FFF759FF6E
:10ACBC00049B1B7818460023019300230093002368
:10ACCC0000220121FFF7F6FE049B5B78FF2B09D0D5
:10ACDC00049B5B780B930B98FFF757FF0B98FFF7D0
:10ACEC001AFF02E04FF0FF330B93049B9B78FF2B72
:10ACFC0007D0049B9B78089301210898FFF71CFF51
:10AD0C0002E04FF0FF330893049B9A780A9B83F878
:10AD1C002020049BDA780A9BDA77049BDB78FF2BE4
:10AD2C0017D0049B1B79002B05D0049BDB781846AD
:10AD3C00FFF72BFF04E0049BDB781846FFF711FFAD
:10AD4C00049BDB781846FFF7E6FE049B1A790A9BF6
:10AD5C009A77049B1B781946089B0B9A0998FFF766
:10AD6C00F1FD049B9B6819460998FFF7FFFD049BB6
:10AD7C00197B049B5B7B1A460998FFF71FFE049B0B
:10AD8C009B7919460998FFF74BFE0998FFF7D1FDFF
:10AD9C000A9B1B68002B15D0059B1B681846FFF7F8
:10ADAC003DFD03461A46049B5B7919461046FFF796
:10ADBC003DFD059B1B681846FFF730FD0346184602
:10ADCC00FFF760FD0A9B00225A770A9B01221A7733
:10ADDC0000230793079B18460DB05DF804FB00BFDA
:10ADEC0078D60200F8310020E4D6020000B583B01A
:10ADFC000190019BDB7FFF2B0ED0019B9B7F002BD7
:10AE0C0005D0019BDB7F1846FFF7BFFE04E0019BDA
:10AE1C00DB7F1846FFF7A5FE019B00225A77019BAA
:10AE2C0000221A72019B1B68019A02F10800019A18
:10AE3C0052681146984700BF03B05DF804FB00B59B
:10AE4C0083B001900B468DF803309DF8033083F0EE
:10AE5C000103DBB2002B04D040210198FFF75FFD0A
:10AE6C0003E040210198FFF750FD00BF03B05DF8EF
:10AE7C0004FB00B583B001900091009B03F001032B
:10AE8C00002B03D00198FFF7D8FD02E00198FFF7E3
:10AE9C00DDFD009B03F00203002B03D00198FFF7AC
:10AEAC00DEFD02E00198FFF7E3FD00BF03B05DF8A3
:10AEBC0004FB00B587B00390029101920093019BB3
:10AECC001B68002B0AD0019B1B681846FFF798FCE7
:10AEDC00034683F00103DBB2002B0ED1019B9B6870
:10AEEC00002B11D0019B9B681846FFF789FC034689
:10AEFC0083F00103DBB2002B06D0029B00225A77B1
:10AF0C0010230593059B54E0019B1968019B5B681A
:10AF1C001A460398FFF734FD019B9968019BDB6887
:10AF2C001A460398FFF73BFD4FF48C710398FFF71B
:10AF3C00C5FC00990398FFF79CFF009B03F00803E6
:10AF4C00002B03D110210398FFF7AAFC029B1B686E
:10AF5C00002B1FD100BF4FF48C710398FFF7C3FC7B
:10AF6C00034683F00103DBB2002BF4D1029BDB7FA1
:10AF7C00FF2B1BD0029B9B7F002B05D0029BDB7F02
:10AF8C001846FFF702FE11E0029BDB7F1846FFF725
:10AF9C00E8FD0BE0009B03F00403002B0CBF012326
:10AFAC000023DBB219460398FFF749FF00230593F2
:10AFBC00059B184607B05DF804FB000010B586B081
:10AFCC00039002910192039B1B791A461346DB00F6
:10AFDC0013449B00394A13440593059B1B7F002B9C
:10AFEC0004D137494FF40B70FCF782FE029B1B68AF
:10AFFC00002B08D1029B5B68002B04D0304940F237
:10B00C002D20FCF775FE029B9B68002B08D1029B40
:10B01C00DB68002B04D02A4940F22E20FCF768FE96
:10B02C00039B1B79002B07D1029BDB68FF2B03D8FA
:10B03C00029B5B68FF2B04D9214940F22F20FCF7BF
:10B04C0057FE00230493059B5B7FDBB2002B03D0E0
:10B05C0011230493049B2EE0059B1B68002B07D047
:10B06C00019B03F01403002B02D1059B01225A779C
:10B07C00059B029A03F10C0413460FCB84E80F00D6
:10B08C00059BDB7FFF2B0ED0059B9B7F002B05D0F8
:10B09C00059BDB7F1846FFF764FD04E0059BDB7F17
:10B0AC001846FFF772FD039B1868019B029A0599DD
:10B0BC00FFF7FFFE0346184606B010BDF83100201E
:10B0CC0078D6020000B583B0019000914FF48C71DA
:10B0DC000198FFF708FC0346002B10D04FF48C713D
:10B0EC000198FFF7EBFB009B1B68002B04D1064972
:10B0FC0040F29620FCF7FCFD0098FFF777FE00BFAE
:10B10C0003B05DF804FB00BF78D6020008B5034914
:10B11C000348FFF7D7FF00BF08BD00BFF831002080
:10B12C000030004084B001900B468DF8033013467C
:10B13C008DF8023000230393019B032B3CD89DF820
:10B14C000230012B0BD19DF80330012B04D1019B54
:10B15C00DBB20E33DBB200E000238DF802309DF839
:10B16C000330022B0FD0022B23DC002B16D0012B2B
:10B17C001FD11449019A13465B0013440B449DF8EC
:10B18C0002201A701AE00F49019A13465B0013440F
:10B19C000B4401339DF802201A700FE00949019A03
:10B1AC0013465B0013440B4402339DF802201A70C3
:10B1BC0004E00723039301E007230393039B184642
:10B1CC0004B070471C32002000B583B0012200216E
:10B1DC000020FFF7A7FF0190019B002B04D0019BDF
:10B1EC00072B01D0019B1CE0072202210120FFF755
:10B1FC0099FF0190019B002B04D0019B072B01D0E0
:10B20C00019B0EE0042202210020FFF78BFF01902E
:10B21C00019B002B04D0019B072B01D0019B00E06C
:10B22C000023184603B05DF804FB00B583B001227F
:10B23C0002210020FFF776FF0190019B002B04D028
:10B24C00019B072B01D0019B1CE00722022101204E
:10B25C00FFF768FF0190019B002B04D0019B072B8B
:10B26C0001D0019B0EE00A2200210020FFF75AFFBB
:10B27C000190019B002B04D0019B072B01D0019B5B
:10B28C0000E00023184603B05DF804FB00B585B060
:10B29C0001900091019B1B88102B02D0112B18D010
:10B2AC002FE01A4B1B68002B0DD1FFF78DFF03907D
:10B2BC00039B002B07D0164B1B68002B03D0144BA1
:10B2CC001B6803989847114B1B6801330F4A136096
:10B2DC0017E00E4B1B68013B0C4A13600B4B1B68B1
:10B2EC00002B0DD1FFF7A1FF0390039B002B07D080
:10B2FC00074B1B68002B03D0054B1B680398984722
:10B30C0000BF00BF05B05DF804FB00BF2C3200206D
:10B31C002832002000B585B00190019B002B0AD08B
:10B32C00074B43F001030393019B9B010293039B87
:10B33C000298984700E000BF05B05DF804FB00BF21
:10B34C00C0D7020000B58FB0039002910093134652
:10B35C008DF8073000230D93029B09939DF807305D
:10B36C000A93009B0B939DF840300C93039B043382
:10B37C0009A900221846FFF721FE0D900D9B1846D7
:10B38C000FB05DF804FB00B583B00190019B002B5E
:10B39C000AD04FF47A70FFF7BDFF019B013B01937C
:10B3AC00019B002BF5D100E000BF03B05DF804FB5E
:10B3BC0010B582B001900091184B01221A70184AF6
:10B3CC00184BD31ADB081B0443F003031649184629
:10B3DC00FBF766FC154B1B78002B1BD0104A114B4E
:10B3EC00D31ADB081B0443F0030311491846FBF77F
:10B3FC0057FC0B4A0B4BD31ADB081B0443F003041A
:10B40C000A4800F007FF03469BB21A46074920463C
:10B41C00FBF794FC00BF02B010BD00BF303200201F
:10B42C00DCC30200ACC30200F8D6020038320020A4
:10B43C000CD7020010B58AB03E4B01221A700120C5
:10B44C00FEF7DCFA4FF480410020FBF751F909902C
:10B45C00099B002B04D0384A56210998FCF776F941
:10B46C00FBF7DCF8354B03AC0FCB84E80F001F2344
:10B47C008DF80F301E238DF80E301D238DF80D30F6
:10B48C001A238DF80C3003A900232D4A2D48FFF701
:10B49C001FF90890089B002B04D0274A5E210898BE
:10B4AC00FCF754F9284A294BD31ADB081B0443F048
:10B4BC00030327491846FBF7F3FB07231A46002121
:10B4CC00244800F00DFF244B00221A700723009330
:10B4DC00204B012217491B48FFF734FF0790079BAD
:10B4EC00002B04D0144A68210798FCF72FF9164A50
:10B4FC00164BD31ADB081B0443F0030317491846F9
:10B50C00FBF7CEFB00E020BF134B1B78DBB283F0C4
:10B51C000103DBB2002BF6D100BFFBF7C3FC0346E3
:10B52C00002BFAD10020FEF71BFAC820FFF72BFFE7
:10B53C00C3E700BF3432002018D70200A4D70200A2
:10B54C00BDB30200E8D60200DCC30200ACC30200AB
:10B55C0084D7020038320020303200209CD7020001
:10B56C0082B0204B0193019B02221A61019B0222A3
:10B57C005A61019B1C4A9A61019B1C4ADA61019B2E
:10B58C004FF400721A62019B00229A62019B002206
:10B59C005A62019B0022DA62019B134A9A64019B56
:10B5AC00134ADA64019B10221A65019B00229A65EA
:10B5BC00019B00225A65019B0022DA65019B07332F
:10B5CC000C4A10681860019B0B4A1068186091882F
:10B5DC00927999809A71019B20229A7100BF02B0D6
:10B5EC00704700BF40320020C8D70200B83200209C
:10B5FC00B8340020D4D70200D8D7020000B589B0E7
:10B60C0003900291019200230693039BDB68059340
:10B61C00039B1B690493049A059B9A4205D9049ACF
:10B62C00059BD31A013B079307E0039B9A68049987
:10B63C00059BCB1A1344013B0793039B9A68059B0C
:10B64C00D31A079A934228BF13460793079A019B74
:10B65C00934228BF13460793039B5A68059B1344D8
:10B66C00079A0299184600F005FE069A079B1344A8
:10B67C000693029A079B13440293019A079BD31AD1
:10B68C000193059A079B13440593039B9B68059AAA
:10B69C009A4201D100230593039B059ADA60019B22
:10B6AC00002BB5D1069B184609B05DF804FB00B51C
:10B6BC0089B0039002910192039BDB680793039B73
:10B6CC009A68079BD31A0693069A019B9A420ED945
:10B6DC00039B5A68079B1344019A0299184600F081
:10B6EC00C9FD079A019B1A44039BDA601AE0069B7A
:10B6FC000593039B5A68079B1344059A02991846B5
:10B70C0000F0B8FD019A069BD31A0593039B586869
:10B71C00029A069B1344059A194600F0ABFD039B55
:10B72C00059ADA6000BF09B05DF804FB86B00190A1
:10B73C00019B1B690493019BDB680393049A039B95
:10B74C009A4208D8019B9A68039BD21A049B134413
:10B75C00013B059304E0049A039BD31A013B059328
:10B76C00059B184606B0704700B589B0039002914E
:10B77C000192029B0693039B5A1C13465B001344D5
:10B78C00DB00204A13440593059B5B69022B29D0EF
:10B79C00022B2ED8002B02D0012B13D029E00598B8
:10B7AC00FFF7C4FF0490049A019B9A4202D2002333
:10B7BC00079321E0019B0793019A06990598FFF7DF
:10B7CC0076FF19E00598FFF7B1FF0490019A049BEE
:10B7DC00934228BF13460793079A06990598FFF7DB
:10B7EC0066FF09E0019A06990598FFF707FF079095
:10B7FC0002E00023079300BF079B184609B05DF8D1
:10B80C0004FB00BF4032002008B5FFF7A9FE00BFC3
:10B81C0008BD000084B00346ADF806300023039346
:10B82C0016E00F49039A13469B0013449B000B44EC
:10B83C001B88BDF806209A4207D1039A13469B0039
:10B84C0013449B00064A134406E0039B0133039305
:10B85C00039B002BE5D00023184604B0704700BFB3
:10B86C00C834002082B001900B46ADF80230019B29
:10B87C00BDF802201A80019B00221A72019B054917
:10B88C0003F10A020B4603CB1060516000BF02B0FB
:10B89C00704700BFF834002082B00190019B4FF636
:10B8AC00FF721A8000BF02B0704788B003900291FB
:10B8BC0011461A460B46ADF806301346ADF8043067
:10B8CC00039B9B881A46BDF8063013440793039BD1
:10B8DC009B881946039B9B88BDF80620934228BF82
:10B8EC0013469BB2CB1A0693039BDB881A46BDF812
:10B8FC00043013440593039BDB881946039BDB88B8
:10B90C00BDF80420934228BF13469BB2CB1A049374
:10B91C00029B5A88039B1B889A4205D3029B5A8828
:10B92C00039B5B889A4201D900231CE0029B9B88F5
:10B93C001A46069B934205D8029B9B881A46079B86
:10B94C00934201D200230EE0029BDB881A46049B33
:10B95C00934205D8029BDB881A46059B934201D281
:10B96C00002300E00123184608B0704700B583B0EF
:10B97C000190064B9B69002B03D0044B9B690198EB
:10B98C00984700BF03B05DF804FB00BFDC34002017
:10B99C0000B587B003460091ADF80630009B5B7A8A
:10B9AC00002B1AD1009B1B7A002B03D1164B5B6822
:10B9BC00059302E0144B9B680593009B5B68BDF8F4
:10B9CC00062005991846FBF7E7FF0490049B002B13
:10B9DC0016D00498FFF7CAFF12E0009B00221A72DF
:10B9EC00094B5B69002B0BD001238DF80C30BDF893
:10B9FC000630ADF80E30044B5B6903AA104698472D
:10BA0C0000BF07B05DF804FBDC34002000B585B046
:10BA1C000190019BDB7B8DF80F30019B9B88ADF86F
:10BA2C000C309DF80F30012B2CD14FF6FF70FFF727
:10BA3C00F1FE0290029B002B03D10420FFF796FF2E
:10BA4C0021E0BDF80C3019460298FFF70BFF029B62
:10BA5C0003F10A00019B03F110014FF6FF7340F252
:10BA6C00F312FFF722FF03461A46029B5A72074B4A
:10BA7C00DB89002B07D1BDF80C3002991846FFF773
:10BA8C0087FF00E000BF05B05DF804FBDC3400204C
:10BA9C0000B587B00190019B9B88ADF81630BDF8BE
:10BAAC0016301846FFF7B6FE0490049B002B0ED000
:10BABC00049B5B681846FBF7C7FF0390039B002BA6
:10BACC0002D00398FFF752FF0498FFF7E5FE00BF82
